:100000000C9434000C9451000C9451000C94510049
:100010000C9451000C9451000C9451000C9451001C
:100020000C9451000C9451000C9451000C9451000C
:100030000C9451000C9451000C9451000C945100FC
:100040000C9481000C9451000C9451000C945100BC
:100050000C9451000C9451000C9451000C945100DC
:100060000C9451000C94510011241FBECFEFD8E026
:10007000DEBFCDBF11E0A0E0B1E0EAE5F1E002C0F3
:1000800005900D92A030B107D9F711E0A0E0B1E0E2
:1000900001C01D92A430B107E1F70E94A8000C94A2
:1000A000AB000C94000015B8259A089585B190E234
:1000B000892785B908950E9453000E94700006C0E8
:1000C0000E947800009711F00E9456000E946D0077
:1000D0000097B1F380E090E0089580E090E008950B
:1000E000F89483E085BD81E080936E007894089554
:1000F0008091000190910101109201011092000184
:1001000008951F920F920FB60F9211242F938F9381
:100110009F938091020190910301019690930301B6
:100120008093020121E0843F920751F481E090E046
:10013000909301018093000110920301109202013B
:100140009F918F912F910F900FBE0F901F90189538
:0A0150000E945B000895F894FFCFB1
:00000001FF
