:100000000C9434000C9451000C9451000C94510049
:100010000C9451000C9451000C9451000C9451001C
:100020000C9451000C9451000C9451000C9451000C
:100030000C9451000C9451000C9451000C945100FC
:100040000C9451000C9451000C9451000C945100EC
:100050000C9451000C9451000C9451000C945100DC
:100060000C9451000C94510011241FBECFEFD8E026
:10007000DEBFCDBF11E0A0E0B1E0E0EEF0E002C0F5
:1000800005900D92A030B107D9F711E0A0E0B1E0E2
:1000900001C01D92A030B107E1F70E946B000C94E3
:1000A0006E000C94000015B808950E9453000E9441
:1000B00063000E9460000097E1F380E090E0089503
:1000C00080E090E00895F89483E085BD81E080931E
:1000D0006E00789408950E9455000895F894FFCF1B
:00000001FF
